{
  "_format": "hh-sol-artifact-1",
  "contractName": "NFT",
  "sourceName": "contracts/NFT.sol",
  "abi": [
    {
      "inputs": [],
      "stateMutability": "nonpayable",
      "type": "constructor"
    },
    {
      "anonymous": false,
      "inputs": [
        {
          "indexed": true,
          "internalType": "address",
          "name": "owner",
          "type": "address"
        },
        {
          "indexed": true,
          "internalType": "address",
          "name": "approved",
          "type": "address"
        },
        {
          "indexed": true,
          "internalType": "uint256",
          "name": "tokenId",
          "type": "uint256"
        }
      ],
      "name": "Approval",
      "type": "event"
    },
    {
      "anonymous": false,
      "inputs": [
        {
          "indexed": true,
          "internalType": "address",
          "name": "owner",
          "type": "address"
        },
        {
          "indexed": true,
          "internalType": "address",
          "name": "operator",
          "type": "address"
        },
        {
          "indexed": false,
          "internalType": "bool",
          "name": "approved",
          "type": "bool"
        }
      ],
      "name": "ApprovalForAll",
      "type": "event"
    },
    {
      "anonymous": false,
      "inputs": [
        {
          "indexed": false,
          "internalType": "address",
          "name": "sender",
          "type": "address"
        },
        {
          "indexed": false,
          "internalType": "uint256",
          "name": "tokenId",
          "type": "uint256"
        }
      ],
      "name": "NFTMinted",
      "type": "event"
    },
    {
      "anonymous": false,
      "inputs": [
        {
          "indexed": true,
          "internalType": "address",
          "name": "from",
          "type": "address"
        },
        {
          "indexed": true,
          "internalType": "address",
          "name": "to",
          "type": "address"
        },
        {
          "indexed": true,
          "internalType": "uint256",
          "name": "tokenId",
          "type": "uint256"
        }
      ],
      "name": "Transfer",
      "type": "event"
    },
    {
      "inputs": [
        {
          "internalType": "address",
          "name": "to",
          "type": "address"
        },
        {
          "internalType": "uint256",
          "name": "tokenId",
          "type": "uint256"
        }
      ],
      "name": "approve",
      "outputs": [],
      "stateMutability": "nonpayable",
      "type": "function"
    },
    {
      "inputs": [
        {
          "internalType": "address",
          "name": "owner",
          "type": "address"
        }
      ],
      "name": "balanceOf",
      "outputs": [
        {
          "internalType": "uint256",
          "name": "",
          "type": "uint256"
        }
      ],
      "stateMutability": "view",
      "type": "function"
    },
    {
      "inputs": [],
      "name": "createNFT",
      "outputs": [],
      "stateMutability": "nonpayable",
      "type": "function"
    },
    {
      "inputs": [
        {
          "internalType": "uint256",
          "name": "tokenId",
          "type": "uint256"
        }
      ],
      "name": "getApproved",
      "outputs": [
        {
          "internalType": "address",
          "name": "",
          "type": "address"
        }
      ],
      "stateMutability": "view",
      "type": "function"
    },
    {
      "inputs": [
        {
          "internalType": "address",
          "name": "owner",
          "type": "address"
        },
        {
          "internalType": "address",
          "name": "operator",
          "type": "address"
        }
      ],
      "name": "isApprovedForAll",
      "outputs": [
        {
          "internalType": "bool",
          "name": "",
          "type": "bool"
        }
      ],
      "stateMutability": "view",
      "type": "function"
    },
    {
      "inputs": [],
      "name": "name",
      "outputs": [
        {
          "internalType": "string",
          "name": "",
          "type": "string"
        }
      ],
      "stateMutability": "view",
      "type": "function"
    },
    {
      "inputs": [
        {
          "internalType": "uint256",
          "name": "tokenId",
          "type": "uint256"
        }
      ],
      "name": "ownerOf",
      "outputs": [
        {
          "internalType": "address",
          "name": "",
          "type": "address"
        }
      ],
      "stateMutability": "view",
      "type": "function"
    },
    {
      "inputs": [
        {
          "internalType": "uint256",
          "name": "tokenId",
          "type": "uint256"
        }
      ],
      "name": "pickFirstWord",
      "outputs": [
        {
          "internalType": "string",
          "name": "",
          "type": "string"
        }
      ],
      "stateMutability": "view",
      "type": "function"
    },
    {
      "inputs": [
        {
          "internalType": "uint256",
          "name": "tokenId",
          "type": "uint256"
        }
      ],
      "name": "pickSecondWord",
      "outputs": [
        {
          "internalType": "string",
          "name": "",
          "type": "string"
        }
      ],
      "stateMutability": "view",
      "type": "function"
    },
    {
      "inputs": [
        {
          "internalType": "uint256",
          "name": "tokenId",
          "type": "uint256"
        }
      ],
      "name": "pickThirdWord",
      "outputs": [
        {
          "internalType": "string",
          "name": "",
          "type": "string"
        }
      ],
      "stateMutability": "view",
      "type": "function"
    },
    {
      "inputs": [
        {
          "internalType": "address",
          "name": "from",
          "type": "address"
        },
        {
          "internalType": "address",
          "name": "to",
          "type": "address"
        },
        {
          "internalType": "uint256",
          "name": "tokenId",
          "type": "uint256"
        }
      ],
      "name": "safeTransferFrom",
      "outputs": [],
      "stateMutability": "nonpayable",
      "type": "function"
    },
    {
      "inputs": [
        {
          "internalType": "address",
          "name": "from",
          "type": "address"
        },
        {
          "internalType": "address",
          "name": "to",
          "type": "address"
        },
        {
          "internalType": "uint256",
          "name": "tokenId",
          "type": "uint256"
        },
        {
          "internalType": "bytes",
          "name": "_data",
          "type": "bytes"
        }
      ],
      "name": "safeTransferFrom",
      "outputs": [],
      "stateMutability": "nonpayable",
      "type": "function"
    },
    {
      "inputs": [
        {
          "internalType": "address",
          "name": "operator",
          "type": "address"
        },
        {
          "internalType": "bool",
          "name": "approved",
          "type": "bool"
        }
      ],
      "name": "setApprovalForAll",
      "outputs": [],
      "stateMutability": "nonpayable",
      "type": "function"
    },
    {
      "inputs": [
        {
          "internalType": "bytes4",
          "name": "interfaceId",
          "type": "bytes4"
        }
      ],
      "name": "supportsInterface",
      "outputs": [
        {
          "internalType": "bool",
          "name": "",
          "type": "bool"
        }
      ],
      "stateMutability": "view",
      "type": "function"
    },
    {
      "inputs": [],
      "name": "symbol",
      "outputs": [
        {
          "internalType": "string",
          "name": "",
          "type": "string"
        }
      ],
      "stateMutability": "view",
      "type": "function"
    },
    {
      "inputs": [
        {
          "internalType": "uint256",
          "name": "tokenId",
          "type": "uint256"
        }
      ],
      "name": "tokenURI",
      "outputs": [
        {
          "internalType": "string",
          "name": "",
          "type": "string"
        }
      ],
      "stateMutability": "view",
      "type": "function"
    },
    {
      "inputs": [
        {
          "internalType": "address",
          "name": "from",
          "type": "address"
        },
        {
          "internalType": "address",
          "name": "to",
          "type": "address"
        },
        {
          "internalType": "uint256",
          "name": "tokenId",
          "type": "uint256"
        }
      ],
      "name": "transferFrom",
      "outputs": [],
      "stateMutability": "nonpayable",
      "type": "function"
    }
  ],
  "bytecode": "0x608060405260405180610160016040528061012f81526020016200462261012f91396008908051906020019062000038929190620007a7565b506040518061012001604052806040518060400160405280600a81526020017f44756d626c65646f72650000000000000000000000000000000000000000000081525081526020016040518060400160405280600581526020017f536e61706500000000000000000000000000000000000000000000000000000081525081526020016040518060400160405280600581526020017f486172727900000000000000000000000000000000000000000000000000000081525081526020016040518060400160405280600381526020017f526f6e000000000000000000000000000000000000000000000000000000000081525081526020016040518060400160405280600681526020017f497461636869000000000000000000000000000000000000000000000000000081525081526020016040518060400160405280600781526020017f4b616b617368690000000000000000000000000000000000000000000000000081525081526020016040518060400160405280600481526020017f4d656f770000000000000000000000000000000000000000000000000000000081525081526020016040518060400160405280600581526020017f476176696e00000000000000000000000000000000000000000000000000000081525081526020016040518060400160405280600681526020017f45726c696368000000000000000000000000000000000000000000000000000081525081525060099060096200026892919062000838565b506040518061010001604052806040518060400160405280600581526020017f4c696b657300000000000000000000000000000000000000000000000000000081525081526020016040518060400160405280600881526020017f57616e6e6147657400000000000000000000000000000000000000000000000081525081526020016040518060400160405280600581526020017f486174657300000000000000000000000000000000000000000000000000000081525081526020016040518060400160405280600581526020017f536c61707300000000000000000000000000000000000000000000000000000081525081526020016040518060400160405280600681526020017f5468726f7773000000000000000000000000000000000000000000000000000081525081526020016040518060400160405280600581526020017f4b69636b7300000000000000000000000000000000000000000000000000000081525081526020016040518060400160405280600681526020017f466967687473000000000000000000000000000000000000000000000000000081525081526020016040518060400160405280601481526020017f57616e6e6148617665736f6d6546756e77697468000000000000000000000000815250815250600a9060086200045d9291906200089f565b506040518060c001604052806040518060400160405280600981526020017f436f666665654d7567000000000000000000000000000000000000000000000081525081526020016040518060400160405280600981526020017f53686172696e67616e000000000000000000000000000000000000000000000081525081526020016040518060400160405280600481526020017f57616e640000000000000000000000000000000000000000000000000000000081525081526020016040518060400160405280600381526020017f436172000000000000000000000000000000000000000000000000000000000081525081526020016040518060400160405280600581526020017f504149736100000000000000000000000000000000000000000000000000000081525081526020016040518060400160405280600981526020017f426f687450616973610000000000000000000000000000000000000000000000815250815250600b906006620005db92919062000906565b50348015620005e957600080fd5b506040518060400160405280600c81526020017f456e6368616e7465644e465400000000000000000000000000000000000000008152506040518060400160405280600981526020017f454e4348414e544544000000000000000000000000000000000000000000000081525081600090805190602001906200066e929190620007a7565b50806001908051906020019062000687929190620007a7565b505050620006d56040518060400160405280600481526020017f4e46542100000000000000000000000000000000000000000000000000000000815250620006db60201b620011621760201c565b62000b27565b6200077b81604051602401620006f2919062000a3b565b6040516020818303038152906040527f41304fac000000000000000000000000000000000000000000000000000000007bffffffffffffffffffffffffffffffffffffffffffffffffffffffff19166020820180517bffffffffffffffffffffffffffffffffffffffffffffffffffffffff83818316178352505050506200077e60201b60201c565b50565b60008151905060006a636f6e736f6c652e6c6f679050602083016000808483855afa5050505050565b828054620007b59062000ab1565b90600052602060002090601f016020900481019282620007d9576000855562000825565b82601f10620007f457805160ff191683800117855562000825565b8280016001018555821562000825579182015b828111156200082457825182559160200191906001019062000807565b5b5090506200083491906200096d565b5090565b8280548282559060005260206000209081019282156200088c579160200282015b828111156200088b5782518290805190602001906200087a929190620007a7565b509160200191906001019062000859565b5b5090506200089b91906200098c565b5090565b828054828255906000526020600020908101928215620008f3579160200282015b82811115620008f2578251829080519060200190620008e1929190620007a7565b5091602001919060010190620008c0565b5b5090506200090291906200098c565b5090565b8280548282559060005260206000209081019282156200095a579160200282015b828111156200095957825182908051906020019062000948929190620007a7565b509160200191906001019062000927565b5b5090506200096991906200098c565b5090565b5b80821115620009885760008160009055506001016200096e565b5090565b5b80821115620009b05760008181620009a69190620009b4565b506001016200098d565b5090565b508054620009c29062000ab1565b6000825580601f10620009d65750620009f7565b601f016020900490600052602060002090810190620009f691906200096d565b5b50565b600062000a078262000a5f565b62000a13818562000a6a565b935062000a2581856020860162000a7b565b62000a308162000b16565b840191505092915050565b6000602082019050818103600083015262000a578184620009fa565b905092915050565b600081519050919050565b600082825260208201905092915050565b60005b8381101562000a9b57808201518184015260208101905062000a7e565b8381111562000aab576000848401525b50505050565b6000600282049050600182168062000aca57607f821691505b6020821081141562000ae15762000ae062000ae7565b5b50919050565b7f4e487b7100000000000000000000000000000000000000000000000000000000600052602260045260246000fd5b6000601f19601f8301169050919050565b613aeb8062000b376000396000f3fe608060405234801561001057600080fd5b506004361061010b5760003560e01c806370a08231116100a2578063b88d4fde11610071578063b88d4fde146102b6578063c6303386146102d2578063c87b56dd14610302578063e2d2c30814610332578063e985e9c5146103625761010b565b806370a08231146102425780638a97ec2a1461027257806395d89b411461027c578063a22cb4651461029a5761010b565b806323b872dd116100de57806323b872dd146101aa5780633bad0d36146101c657806342842e0e146101f65780636352211e146102125761010b565b806301ffc9a71461011057806306fdde0314610140578063081812fc1461015e578063095ea7b31461018e575b600080fd5b61012a6004803603810190610125919061258e565b610392565b6040516101379190612cdd565b60405180910390f35b610148610474565b6040516101559190612cf8565b60405180910390f35b610178600480360381019061017391906125e0565b610506565b6040516101859190612c4d565b60405180910390f35b6101a860048036038101906101a39190612552565b61058b565b005b6101c460048036038101906101bf919061244c565b6106a3565b005b6101e060048036038101906101db91906125e0565b610703565b6040516101ed9190612cf8565b60405180910390f35b610210600480360381019061020b919061244c565b610821565b005b61022c600480360381019061022791906125e0565b610841565b6040516102399190612c4d565b60405180910390f35b61025c600480360381019061025791906123e7565b6108f3565b6040516102699190612f58565b60405180910390f35b61027a6109ab565b005b610284610c36565b6040516102919190612cf8565b60405180910390f35b6102b460048036038101906102af9190612516565b610cc8565b005b6102d060048036038101906102cb919061249b565b610cde565b005b6102ec60048036038101906102e791906125e0565b610d40565b6040516102f99190612cf8565b60405180910390f35b61031c600480360381019061031791906125e0565b610e5e565b6040516103299190612cf8565b60405180910390f35b61034c600480360381019061034791906125e0565b610fb0565b6040516103599190612cf8565b60405180910390f35b61037c60048036038101906103779190612410565b6110ce565b6040516103899190612cdd565b60405180910390f35b60007f80ac58cd000000000000000000000000000000000000000000000000000000007bffffffffffffffffffffffffffffffffffffffffffffffffffffffff1916827bffffffffffffffffffffffffffffffffffffffffffffffffffffffff1916148061045d57507f5b5e139f000000000000000000000000000000000000000000000000000000007bffffffffffffffffffffffffffffffffffffffffffffffffffffffff1916827bffffffffffffffffffffffffffffffffffffffffffffffffffffffff1916145b8061046d575061046c826111fb565b5b9050919050565b606060008054610483906131ec565b80601f01602080910402602001604051908101604052809291908181526020018280546104af906131ec565b80156104fc5780601f106104d1576101008083540402835291602001916104fc565b820191906000526020600020905b8154815290600101906020018083116104df57829003601f168201915b5050505050905090565b600061051182611265565b610550576040517f08c379a000000000000000000000000000000000000000000000000000000000815260040161054790612ed8565b60405180910390fd5b6004600083815260200190815260200160002060009054906101000a900473ffffffffffffffffffffffffffffffffffffffff169050919050565b600061059682610841565b90508073ffffffffffffffffffffffffffffffffffffffff168373ffffffffffffffffffffffffffffffffffffffff161415610607576040517f08c379a00000000000000000000000000000000000000000000000000000000081526004016105fe90612f18565b60405180910390fd5b8073ffffffffffffffffffffffffffffffffffffffff166106266112d1565b73ffffffffffffffffffffffffffffffffffffffff16148061065557506106548161064f6112d1565b6110ce565b5b610694576040517f08c379a000000000000000000000000000000000000000000000000000000000815260040161068b90612e18565b60405180910390fd5b61069e83836112d9565b505050565b6106b46106ae6112d1565b82611392565b6106f3576040517f08c379a00000000000000000000000000000000000000000000000000000000081526004016106ea90612f38565b60405180910390fd5b6106fe838383611470565b505050565b60606000610737610713846116d7565b6040516020016107239190612c09565b604051602081830303815290604052611884565b90506009805490508161074a9190613298565b905060098181548110610786577f4e487b7100000000000000000000000000000000000000000000000000000000600052603260045260246000fd5b90600052602060002001805461079b906131ec565b80601f01602080910402602001604051908101604052809291908181526020018280546107c7906131ec565b80156108145780601f106107e957610100808354040283529160200191610814565b820191906000526020600020905b8154815290600101906020018083116107f757829003601f168201915b5050505050915050919050565b61083c83838360405180602001604052806000815250610cde565b505050565b6000806002600084815260200190815260200160002060009054906101000a900473ffffffffffffffffffffffffffffffffffffffff169050600073ffffffffffffffffffffffffffffffffffffffff168173ffffffffffffffffffffffffffffffffffffffff1614156108ea576040517f08c379a00000000000000000000000000000000000000000000000000000000081526004016108e190612e58565b60405180910390fd5b80915050919050565b60008073ffffffffffffffffffffffffffffffffffffffff168273ffffffffffffffffffffffffffffffffffffffff161415610964576040517f08c379a000000000000000000000000000000000000000000000000000000000815260040161095b90612e38565b60405180910390fd5b600360008373ffffffffffffffffffffffffffffffffffffffff1673ffffffffffffffffffffffffffffffffffffffff168152602001908152602001600020549050919050565b60006109b760076118b7565b905060006109c482610703565b905060006109d183610d40565b905060006109de84610fb0565b905060008383836040516020016109f793929190612afe565b60405160208183030381529060405290506000600882604051602001610a1e929190612b2f565b60405160208183030381529060405290506000610a6383610a3e846118c5565b604051602001610a4f929190612bc4565b6040516020818303038152906040526118c5565b9050600081604051602001610a789190612c2b565b6040516020818303038152906040529050610ac76040518060400160405280601581526020017f0a2d2d2d2d2d2d2d2d2d2d2d2d2d2d2d2d2d2d2d2d0000000000000000000000815250611162565b610aef81604051602001610adb9190612b5e565b604051602081830303815290604052611162565b610b2d6040518060400160405280601581526020017f2d2d2d2d2d2d2d2d2d2d2d2d2d2d2d2d2d2d2d2d0a0000000000000000000000815250611162565b610b6b6040518060400160405280601581526020017f0a2d2d2d2d2d2d2d2d2d2d2d2d2d2d2d2d2d2d2d2d0000000000000000000000815250611162565b610b7481611162565b610bb26040518060400160405280601581526020017f2d2d2d2d2d2d2d2d2d2d2d2d2d2d2d2d2d2d2d2d0a0000000000000000000000815250611162565b610bbc3389611a83565b610bc68882611aa1565b610bd06007611b15565b610bf3604051806060016040528060228152602001613a94602291398933611b2b565b7f4cc0a9c4a99ddc700de1af2c9f916a7cbfdb71f14801ccff94061ad1ef8a80403389604051610c24929190612cb4565b60405180910390a15050505050505050565b606060018054610c45906131ec565b80601f0160208091040260200160405190810160405280929190818152602001828054610c71906131ec565b8015610cbe5780601f10610c9357610100808354040283529160200191610cbe565b820191906000526020600020905b815481529060010190602001808311610ca157829003601f168201915b5050505050905090565b610cda610cd36112d1565b8383611bca565b5050565b610cef610ce96112d1565b83611392565b610d2e576040517f08c379a0000000000000000000000000000000000000000000000000000000008152600401610d2590612f38565b60405180910390fd5b610d3a84848484611d37565b50505050565b60606000610d74610d50846116d7565b604051602001610d609190612ba2565b604051602081830303815290604052611884565b9050600a8054905081610d879190613298565b9050600a8181548110610dc3577f4e487b7100000000000000000000000000000000000000000000000000000000600052603260045260246000fd5b906000526020600020018054610dd8906131ec565b80601f0160208091040260200160405190810160405280929190818152602001828054610e04906131ec565b8015610e515780601f10610e2657610100808354040283529160200191610e51565b820191906000526020600020905b815481529060010190602001808311610e3457829003601f168201915b5050505050915050919050565b6060610e6982611265565b610ea8576040517f08c379a0000000000000000000000000000000000000000000000000000000008152600401610e9f90612eb8565b60405180910390fd5b6000600660008481526020019081526020016000208054610ec8906131ec565b80601f0160208091040260200160405190810160405280929190818152602001828054610ef4906131ec565b8015610f415780601f10610f1657610100808354040283529160200191610f41565b820191906000526020600020905b815481529060010190602001808311610f2457829003601f168201915b505050505090506000610f52611d93565b9050600081511415610f68578192505050610fab565b600082511115610f9d578082604051602001610f85929190612ada565b60405160208183030381529060405292505050610fab565b610fa684611daa565b925050505b919050565b60606000610fe4610fc0846116d7565b604051602001610fd09190612b80565b604051602081830303815290604052611884565b9050600b8054905081610ff79190613298565b9050600b8181548110611033577f4e487b7100000000000000000000000000000000000000000000000000000000600052603260045260246000fd5b906000526020600020018054611048906131ec565b80601f0160208091040260200160405190810160405280929190818152602001828054611074906131ec565b80156110c15780601f10611096576101008083540402835291602001916110c1565b820191906000526020600020905b8154815290600101906020018083116110a457829003601f168201915b5050505050915050919050565b6000600560008473ffffffffffffffffffffffffffffffffffffffff1673ffffffffffffffffffffffffffffffffffffffff16815260200190815260200160002060008373ffffffffffffffffffffffffffffffffffffffff1673ffffffffffffffffffffffffffffffffffffffff16815260200190815260200160002060009054906101000a900460ff16905092915050565b6111f8816040516024016111769190612cf8565b6040516020818303038152906040527f41304fac000000000000000000000000000000000000000000000000000000007bffffffffffffffffffffffffffffffffffffffffffffffffffffffff19166020820180517bffffffffffffffffffffffffffffffffffffffffffffffffffffffff8381831617835250505050611e51565b50565b60007f01ffc9a7000000000000000000000000000000000000000000000000000000007bffffffffffffffffffffffffffffffffffffffffffffffffffffffff1916827bffffffffffffffffffffffffffffffffffffffffffffffffffffffff1916149050919050565b60008073ffffffffffffffffffffffffffffffffffffffff166002600084815260200190815260200160002060009054906101000a900473ffffffffffffffffffffffffffffffffffffffff1673ffffffffffffffffffffffffffffffffffffffff1614159050919050565b600033905090565b816004600083815260200190815260200160002060006101000a81548173ffffffffffffffffffffffffffffffffffffffff021916908373ffffffffffffffffffffffffffffffffffffffff160217905550808273ffffffffffffffffffffffffffffffffffffffff1661134c83610841565b73ffffffffffffffffffffffffffffffffffffffff167f8c5be1e5ebec7d5bd14f71427d1e84f3dd0314c0f7b2291e5b200ac8c7c3b92560405160405180910390a45050565b600061139d82611265565b6113dc576040517f08c379a00000000000000000000000000000000000000000000000000000000081526004016113d390612df8565b60405180910390fd5b60006113e783610841565b90508073ffffffffffffffffffffffffffffffffffffffff168473ffffffffffffffffffffffffffffffffffffffff16148061145657508373ffffffffffffffffffffffffffffffffffffffff1661143e84610506565b73ffffffffffffffffffffffffffffffffffffffff16145b80611467575061146681856110ce565b5b91505092915050565b8273ffffffffffffffffffffffffffffffffffffffff1661149082610841565b73ffffffffffffffffffffffffffffffffffffffff16146114e6576040517f08c379a00000000000000000000000000000000000000000000000000000000081526004016114dd90612d78565b60405180910390fd5b600073ffffffffffffffffffffffffffffffffffffffff168273ffffffffffffffffffffffffffffffffffffffff161415611556576040517f08c379a000000000000000000000000000000000000000000000000000000000815260040161154d90612db8565b60405180910390fd5b611561838383611e7a565b61156c6000826112d9565b6001600360008573ffffffffffffffffffffffffffffffffffffffff1673ffffffffffffffffffffffffffffffffffffffff16815260200190815260200160002060008282546115bc9190613102565b925050819055506001600360008473ffffffffffffffffffffffffffffffffffffffff1673ffffffffffffffffffffffffffffffffffffffff16815260200190815260200160002060008282546116139190613021565b92505081905550816002600083815260200190815260200160002060006101000a81548173ffffffffffffffffffffffffffffffffffffffff021916908373ffffffffffffffffffffffffffffffffffffffff160217905550808273ffffffffffffffffffffffffffffffffffffffff168473ffffffffffffffffffffffffffffffffffffffff167fddf252ad1be2c89b69c2b068fc378daa952ba7f163c4a11628f55a4df523b3ef60405160405180910390a46116d2838383611e7f565b505050565b6060600082141561171f576040518060400160405280600181526020017f3000000000000000000000000000000000000000000000000000000000000000815250905061187f565b600082905060005b6000821461175157808061173a9061324f565b915050600a8261174a9190613077565b9150611727565b60008167ffffffffffffffff811115611793577f4e487b7100000000000000000000000000000000000000000000000000000000600052604160045260246000fd5b6040519080825280601f01601f1916602001820160405280156117c55781602001600182028036833780820191505090505b5090505b60008514611878576001826117de9190613102565b9150600a856117ed9190613298565b60306117f99190613021565b60f81b818381518110611835577f4e487b7100000000000000000000000000000000000000000000000000000000600052603260045260246000fd5b60200101907effffffffffffffffffffffffffffffffffffffffffffffffffffffffffffff1916908160001a905350600a856118719190613077565b94506117c9565b8093505050505b919050565b6000816040516020016118979190612ac3565b6040516020818303038152906040528051906020012060001c9050919050565b600081600001549050919050565b606060008251905060008114156118ee5760405180602001604052806000815250915050611a7e565b600060036002836118ff9190613021565b6119099190613077565b600461191591906130a8565b905060006020826119269190613021565b67ffffffffffffffff811115611965577f4e487b7100000000000000000000000000000000000000000000000000000000600052604160045260246000fd5b6040519080825280601f01601f1916602001820160405280156119975781602001600182028036833780820191505090505b5090506000604051806060016040528060408152602001613a54604091399050600181016020830160005b86811015611a3b5760038101905062ffffff818a015116603f8160121c168401518060081b905060ff603f83600c1c1686015116810190508060081b905060ff603f8360061c1686015116810190508060081b905060ff603f831686015116810190508060e01b905080845260048401935050506119c2565b506003860660018114611a555760028114611a6557611a70565b613d3d60f01b6002830352611a70565b603d60f81b60018303525b508484525050819450505050505b919050565b611a9d828260405180602001604052806000815250611e84565b5050565b611aaa82611265565b611ae9576040517f08c379a0000000000000000000000000000000000000000000000000000000008152600401611ae090612e78565b60405180910390fd5b80600660008481526020019081526020016000209080519060200190611b10929190612273565b505050565b6001816000016000828254019250508190555050565b611bc5838383604051602401611b4393929190612d1a565b6040516020818303038152906040527fe3849f79000000000000000000000000000000000000000000000000000000007bffffffffffffffffffffffffffffffffffffffffffffffffffffffff19166020820180517bffffffffffffffffffffffffffffffffffffffffffffffffffffffff8381831617835250505050611e51565b505050565b8173ffffffffffffffffffffffffffffffffffffffff168373ffffffffffffffffffffffffffffffffffffffff161415611c39576040517f08c379a0000000000000000000000000000000000000000000000000000000008152600401611c3090612dd8565b60405180910390fd5b80600560008573ffffffffffffffffffffffffffffffffffffffff1673ffffffffffffffffffffffffffffffffffffffff16815260200190815260200160002060008473ffffffffffffffffffffffffffffffffffffffff1673ffffffffffffffffffffffffffffffffffffffff16815260200190815260200160002060006101000a81548160ff0219169083151502179055508173ffffffffffffffffffffffffffffffffffffffff168373ffffffffffffffffffffffffffffffffffffffff167f17307eab39ab6107e8899845ad3d59bd9653f200f220920489ca2b5937696c3183604051611d2a9190612cdd565b60405180910390a3505050565b611d42848484611470565b611d4e84848484611edf565b611d8d576040517f08c379a0000000000000000000000000000000000000000000000000000000008152600401611d8490612d58565b60405180910390fd5b50505050565b606060405180602001604052806000815250905090565b6060611db582611265565b611df4576040517f08c379a0000000000000000000000000000000000000000000000000000000008152600401611deb90612ef8565b60405180910390fd5b6000611dfe611d93565b90506000815111611e1e5760405180602001604052806000815250611e49565b80611e28846116d7565b604051602001611e39929190612ada565b6040516020818303038152906040525b915050919050565b60008151905060006a636f6e736f6c652e6c6f679050602083016000808483855afa5050505050565b505050565b505050565b611e8e8383612076565b611e9b6000848484611edf565b611eda576040517f08c379a0000000000000000000000000000000000000000000000000000000008152600401611ed190612d58565b60405180910390fd5b505050565b6000611f008473ffffffffffffffffffffffffffffffffffffffff16612250565b15612069578373ffffffffffffffffffffffffffffffffffffffff1663150b7a02611f296112d1565b8786866040518563ffffffff1660e01b8152600401611f4b9493929190612c68565b602060405180830381600087803b158015611f6557600080fd5b505af1925050508015611f9657506040513d601f19601f82011682018060405250810190611f9391906125b7565b60015b612019573d8060008114611fc6576040519150601f19603f3d011682016040523d82523d6000602084013e611fcb565b606091505b50600081511415612011576040517f08c379a000000000000000000000000000000000000000000000000000000000815260040161200890612d58565b60405180910390fd5b805181602001fd5b63150b7a0260e01b7bffffffffffffffffffffffffffffffffffffffffffffffffffffffff1916817bffffffffffffffffffffffffffffffffffffffffffffffffffffffff19161491505061206e565b600190505b949350505050565b600073ffffffffffffffffffffffffffffffffffffffff168273ffffffffffffffffffffffffffffffffffffffff1614156120e6576040517f08c379a00000000000000000000000000000000000000000000000000000000081526004016120dd90612e98565b60405180910390fd5b6120ef81611265565b1561212f576040517f08c379a000000000000000000000000000000000000000000000000000000000815260040161212690612d98565b60405180910390fd5b61213b60008383611e7a565b6001600360008473ffffffffffffffffffffffffffffffffffffffff1673ffffffffffffffffffffffffffffffffffffffff168152602001908152602001600020600082825461218b9190613021565b92505081905550816002600083815260200190815260200160002060006101000a81548173ffffffffffffffffffffffffffffffffffffffff021916908373ffffffffffffffffffffffffffffffffffffffff160217905550808273ffffffffffffffffffffffffffffffffffffffff16600073ffffffffffffffffffffffffffffffffffffffff167fddf252ad1be2c89b69c2b068fc378daa952ba7f163c4a11628f55a4df523b3ef60405160405180910390a461224c60008383611e7f565b5050565b6000808273ffffffffffffffffffffffffffffffffffffffff163b119050919050565b82805461227f906131ec565b90600052602060002090601f0160209004810192826122a157600085556122e8565b82601f106122ba57805160ff19168380011785556122e8565b828001600101855582156122e8579182015b828111156122e75782518255916020019190600101906122cc565b5b5090506122f591906122f9565b5090565b5b808211156123125760008160009055506001016122fa565b5090565b600061232961232484612f98565b612f73565b90508281526020810184848401111561234157600080fd5b61234c8482856131aa565b509392505050565b600081359050612363816139f7565b92915050565b60008135905061237881613a0e565b92915050565b60008135905061238d81613a25565b92915050565b6000815190506123a281613a25565b92915050565b600082601f8301126123b957600080fd5b81356123c9848260208601612316565b91505092915050565b6000813590506123e181613a3c565b92915050565b6000602082840312156123f957600080fd5b600061240784828501612354565b91505092915050565b6000806040838503121561242357600080fd5b600061243185828601612354565b925050602061244285828601612354565b9150509250929050565b60008060006060848603121561246157600080fd5b600061246f86828701612354565b935050602061248086828701612354565b9250506040612491868287016123d2565b9150509250925092565b600080600080608085870312156124b157600080fd5b60006124bf87828801612354565b94505060206124d087828801612354565b93505060406124e1878288016123d2565b925050606085013567ffffffffffffffff8111156124fe57600080fd5b61250a878288016123a8565b91505092959194509250565b6000806040838503121561252957600080fd5b600061253785828601612354565b925050602061254885828601612369565b9150509250929050565b6000806040838503121561256557600080fd5b600061257385828601612354565b9250506020612584858286016123d2565b9150509250929050565b6000602082840312156125a057600080fd5b60006125ae8482850161237e565b91505092915050565b6000602082840312156125c957600080fd5b60006125d784828501612393565b91505092915050565b6000602082840312156125f257600080fd5b6000612600848285016123d2565b91505092915050565b61261281613136565b82525050565b61262181613148565b82525050565b600061263282612fde565b61263c8185612ff4565b935061264c8185602086016131b9565b61265581613385565b840191505092915050565b600061266b82612fe9565b6126758185613005565b93506126858185602086016131b9565b61268e81613385565b840191505092915050565b60006126a482612fe9565b6126ae8185613016565b93506126be8185602086016131b9565b80840191505092915050565b600081546126d7816131ec565b6126e18186613016565b945060018216600081146126fc576001811461270d57612740565b60ff19831686528186019350612740565b61271685612fc9565b60005b8381101561273857815481890152600182019150602081019050612719565b838801955050505b50505092915050565b6000612756602583613016565b915061276182613396565b602582019050919050565b6000612779603283613005565b9150612784826133e5565b604082019050919050565b600061279c602583613005565b91506127a782613434565b604082019050919050565b60006127bf601c83613005565b91506127ca82613483565b602082019050919050565b60006127e2600a83613016565b91506127ed826134ac565b600a82019050919050565b6000612805602483613005565b9150612810826134d5565b604082019050919050565b6000612828601983613005565b915061283382613524565b602082019050919050565b600061284b600b83613016565b91506128568261354d565b600b82019050919050565b600061286e602c83613005565b915061287982613576565b604082019050919050565b6000612891600d83613016565b915061289c826135c5565b600d82019050919050565b60006128b4603883613005565b91506128bf826135ee565b604082019050919050565b60006128d7602a83613005565b91506128e28261363d565b604082019050919050565b60006128fa602983613005565b91506129058261368c565b604082019050919050565b600061291d602e83613005565b9150612928826136db565b604082019050919050565b6000612940600283613016565b915061294b8261372a565b600282019050919050565b6000612963602083613005565b915061296e82613753565b602082019050919050565b6000612986603183613005565b91506129918261377c565b604082019050919050565b60006129a9604783613016565b91506129b4826137cb565b604782019050919050565b60006129cc602c83613005565b91506129d782613840565b604082019050919050565b60006129ef602f83613005565b91506129fa8261388f565b604082019050919050565b6000612a12600a83613016565b9150612a1d826138de565b600a82019050919050565b6000612a35602183613005565b9150612a4082613907565b604082019050919050565b6000612a58600a83613016565b9150612a6382613956565b600a82019050919050565b6000612a7b601d83613016565b9150612a868261397f565b601d82019050919050565b6000612a9e603183613005565b9150612aa9826139a8565b604082019050919050565b612abd816131a0565b82525050565b6000612acf8284612699565b915081905092915050565b6000612ae68285612699565b9150612af28284612699565b91508190509392505050565b6000612b0a8286612699565b9150612b168285612699565b9150612b228284612699565b9150819050949350505050565b6000612b3b82856126ca565b9150612b478284612699565b9150612b5282612884565b91508190509392505050565b6000612b6982612749565b9150612b758284612699565b915081905092915050565b6000612b8b826127d5565b9150612b978284612699565b915081905092915050565b6000612bad8261283e565b9150612bb98284612699565b915081905092915050565b6000612bcf82612a05565b9150612bdb8285612699565b9150612be68261299c565b9150612bf28284612699565b9150612bfd82612933565b91508190509392505050565b6000612c1482612a4b565b9150612c208284612699565b915081905092915050565b6000612c3682612a6e565b9150612c428284612699565b915081905092915050565b6000602082019050612c626000830184612609565b92915050565b6000608082019050612c7d6000830187612609565b612c8a6020830186612609565b612c976040830185612ab4565b8181036060830152612ca98184612627565b905095945050505050565b6000604082019050612cc96000830185612609565b612cd66020830184612ab4565b9392505050565b6000602082019050612cf26000830184612618565b92915050565b60006020820190508181036000830152612d128184612660565b905092915050565b60006060820190508181036000830152612d348186612660565b9050612d436020830185612ab4565b612d506040830184612609565b949350505050565b60006020820190508181036000830152612d718161276c565b9050919050565b60006020820190508181036000830152612d918161278f565b9050919050565b60006020820190508181036000830152612db1816127b2565b9050919050565b60006020820190508181036000830152612dd1816127f8565b9050919050565b60006020820190508181036000830152612df18161281b565b9050919050565b60006020820190508181036000830152612e1181612861565b9050919050565b60006020820190508181036000830152612e31816128a7565b9050919050565b60006020820190508181036000830152612e51816128ca565b9050919050565b60006020820190508181036000830152612e71816128ed565b9050919050565b60006020820190508181036000830152612e9181612910565b9050919050565b60006020820190508181036000830152612eb181612956565b9050919050565b60006020820190508181036000830152612ed181612979565b9050919050565b60006020820190508181036000830152612ef1816129bf565b9050919050565b60006020820190508181036000830152612f11816129e2565b9050919050565b60006020820190508181036000830152612f3181612a28565b9050919050565b60006020820190508181036000830152612f5181612a91565b9050919050565b6000602082019050612f6d6000830184612ab4565b92915050565b6000612f7d612f8e565b9050612f89828261321e565b919050565b6000604051905090565b600067ffffffffffffffff821115612fb357612fb2613356565b5b612fbc82613385565b9050602081019050919050565b60008190508160005260206000209050919050565b600081519050919050565b600081519050919050565b600082825260208201905092915050565b600082825260208201905092915050565b600081905092915050565b600061302c826131a0565b9150613037836131a0565b9250827fffffffffffffffffffffffffffffffffffffffffffffffffffffffffffffffff0382111561306c5761306b6132c9565b5b828201905092915050565b6000613082826131a0565b915061308d836131a0565b92508261309d5761309c6132f8565b5b828204905092915050565b60006130b3826131a0565b91506130be836131a0565b9250817fffffffffffffffffffffffffffffffffffffffffffffffffffffffffffffffff04831182151516156130f7576130f66132c9565b5b828202905092915050565b600061310d826131a0565b9150613118836131a0565b92508282101561312b5761312a6132c9565b5b828203905092915050565b600061314182613180565b9050919050565b60008115159050919050565b60007fffffffff0000000000000000000000000000000000000000000000000000000082169050919050565b600073ffffffffffffffffffffffffffffffffffffffff82169050919050565b6000819050919050565b82818337600083830152505050565b60005b838110156131d75780820151818401526020810190506131bc565b838111156131e6576000848401525b50505050565b6000600282049050600182168061320457607f821691505b6020821081141561321857613217613327565b5b50919050565b61322782613385565b810181811067ffffffffffffffff8211171561324657613245613356565b5b80604052505050565b600061325a826131a0565b91507fffffffffffffffffffffffffffffffffffffffffffffffffffffffffffffffff82141561328d5761328c6132c9565b5b600182019050919050565b60006132a3826131a0565b91506132ae836131a0565b9250826132be576132bd6132f8565b5b828206905092915050565b7f4e487b7100000000000000000000000000000000000000000000000000000000600052601160045260246000fd5b7f4e487b7100000000000000000000000000000000000000000000000000000000600052601260045260246000fd5b7f4e487b7100000000000000000000000000000000000000000000000000000000600052602260045260246000fd5b7f4e487b7100000000000000000000000000000000000000000000000000000000600052604160045260246000fd5b6000601f19601f8301169050919050565b7f68747470733a2f2f6e6674707265766965772e30786465762e636f6465732f3f60008201527f636f64653d000000000000000000000000000000000000000000000000000000602082015250565b7f4552433732313a207472616e7366657220746f206e6f6e20455243373231526560008201527f63656976657220696d706c656d656e7465720000000000000000000000000000602082015250565b7f4552433732313a207472616e736665722066726f6d20696e636f72726563742060008201527f6f776e6572000000000000000000000000000000000000000000000000000000602082015250565b7f4552433732313a20746f6b656e20616c7265616479206d696e74656400000000600082015250565b7f54484952445f574f524400000000000000000000000000000000000000000000600082015250565b7f4552433732313a207472616e7366657220746f20746865207a65726f2061646460008201527f7265737300000000000000000000000000000000000000000000000000000000602082015250565b7f4552433732313a20617070726f766520746f2063616c6c657200000000000000600082015250565b7f5345434f4e445f574f5244000000000000000000000000000000000000000000600082015250565b7f4552433732313a206f70657261746f7220717565727920666f72206e6f6e657860008201527f697374656e7420746f6b656e0000000000000000000000000000000000000000602082015250565b7f3c2f746578743e3c2f7376673e00000000000000000000000000000000000000600082015250565b7f4552433732313a20617070726f76652063616c6c6572206973206e6f74206f7760008201527f6e6572206e6f7220617070726f76656420666f7220616c6c0000000000000000602082015250565b7f4552433732313a2062616c616e636520717565727920666f7220746865207a6560008201527f726f206164647265737300000000000000000000000000000000000000000000602082015250565b7f4552433732313a206f776e657220717565727920666f72206e6f6e657869737460008201527f656e7420746f6b656e0000000000000000000000000000000000000000000000602082015250565b7f45524337323155524953746f726167653a2055524920736574206f66206e6f6e60008201527f6578697374656e7420746f6b656e000000000000000000000000000000000000602082015250565b7f227d000000000000000000000000000000000000000000000000000000000000600082015250565b7f4552433732313a206d696e7420746f20746865207a65726f2061646472657373600082015250565b7f45524337323155524953746f726167653a2055524920717565727920666f722060008201527f6e6f6e6578697374656e7420746f6b656e000000000000000000000000000000602082015250565b7f222c20226465736372697074696f6e223a2022456e6368616e746564204e465460008201527f222c2022696d616765223a2022646174613a696d6167652f7376672b786d6c3b60208201527f6261736536342c00000000000000000000000000000000000000000000000000604082015250565b7f4552433732313a20617070726f76656420717565727920666f72206e6f6e657860008201527f697374656e7420746f6b656e0000000000000000000000000000000000000000602082015250565b7f4552433732314d657461646174613a2055524920717565727920666f72206e6f60008201527f6e6578697374656e7420746f6b656e0000000000000000000000000000000000602082015250565b7f7b226e616d65223a202200000000000000000000000000000000000000000000600082015250565b7f4552433732313a20617070726f76616c20746f2063757272656e74206f776e6560008201527f7200000000000000000000000000000000000000000000000000000000000000602082015250565b7f46495253545f574f524400000000000000000000000000000000000000000000600082015250565b7f646174613a6170706c69636174696f6e2f6a736f6e3b6261736536342c000000600082015250565b7f4552433732313a207472616e736665722063616c6c6572206973206e6f74206f60008201527f776e6572206e6f7220617070726f766564000000000000000000000000000000602082015250565b613a0081613136565b8114613a0b57600080fd5b50565b613a1781613148565b8114613a2257600080fd5b50565b613a2e81613154565b8114613a3957600080fd5b50565b613a45816131a0565b8114613a5057600080fd5b5056fe4142434445464748494a4b4c4d4e4f505152535455565758595a6162636465666768696a6b6c6d6e6f707172737475767778797a303132333435363738392b2f4e465420772f20494420257320686173206265656e206d696e74656420746f202573a26469706673582212205b2744d3088cf61aca1c653800bc052725a48d8b2383f620168663930cb23f1d64736f6c634300080400333c73766720786d6c6e733d27687474703a2f2f7777772e77332e6f72672f323030302f73766727207072657365727665417370656374526174696f3d27784d696e594d696e206d656574272076696577426f783d273020302033353020333530273e3c7374796c653e2e62617365207b2066696c6c3a2077686974653b20666f6e742d66616d696c793a2073657269663b20666f6e742d73697a653a20323470783b207d3c2f7374796c653e3c726563742077696474683d273130302527206865696768743d2731303025272066696c6c3d27626c61636b27202f3e3c7465787420783d273530252720793d273530252720636c6173733d27626173652720646f6d696e616e742d626173656c696e653d276d6964646c652720746578742d616e63686f723d276d6964646c65273e",
  "linkReferences": {},
  "deployedLinkReferences": {}
}